:020000040800F2
:1000000078070020A9010008C11F00088D1C000806
:10001000C91E0008CD130008BB2E00080000000018
:10002000000000000000000000000000C9260008D9
:100030007714000800000000F3220008F3260008EF
:10004000BF010008BF010008BF010008BF01000890
:10005000BF010008BF010008F1190008BF01000836
:10006000BF010008BF010008BF010008BF01000870
:10007000BF010008BF010008BF010008BF01000860
:10008000BF010008BF010008BF010008BF01000850
:10009000BF010008BF010008BF010008BF01000840
:1000A000BF010008BF010008BF010008BF01000830
:1000B000BF010008D5280008BF010008BF010008E3
:1000C000BF010008BF010008BF010008BF01000810
:1000D000BF010008B92B0008BF010008BF010008DC
:1000E000BF010008BF010008BF01000800F002F8CE
:1000F00000F04AF80AA090E8000C82448344AAF178
:100100000107DA4501D100F03FF8AFF2090EBAE875
:100110000F0013F0010F18BFFB1A43F0010318473B
:100120005840000078400000103A24BF78C878C1D9
:10013000FAD8520724BF30C830C144BF04680C60ED
:10014000704700000023002400250026103A28BF35
:1001500078C1FBD8520728BF30C148BF0B60704739
:10016000662903F04286782900F0708000207047ED
:100170001FB500F0D9FB04000020002103F086F831
:10018000E0601FBD10B510BD00F0EAFC1146FFF79E
:10019000EFFF02F047FF00F008FD03B4FFF7F2FFA6
:1001A00003BC02F0A7FE000008480047FEE7FEE798
:1001B000FEE7FEE7FEE7FEE7FEE7FEE7FEE7FEE717
:1001C00003480449044A054B70470000ED0000084D
:1001D00078010020780700207803002078030020B1
:1001E000704700000FB4044910B503AA029800F04C
:1001F00089FB10BC5DF814FB3800002070B5044684
:1002000085690068C10601D5302600E02026C007B8
:1002100007D070BDD4E9012130469047206A401CC8
:1002200020626D1EF6D570BD70B5044685690078F4
:10023000C00707D170BDD4E9012120209047206A72
:10024000401C20626D1EF6D570BD000070B50446DE
:100250000D4621461068AFF300802188090502D5BC
:100260000F4A7A4402E00E4A7A440E32002104F129
:10027000240305E000F00F060009965D5E54491C5A
:100280000028F7D120780023000704D5702D02D074
:1002900009B1022311322046BDE8704000F0C9B810
:1002A000453E00002DE9F05F894604464FF0000A04
:1002B000DFF824B1FB44C0F820A02046E16888475D
:1002C00000287DD0252806D0D4E901219047206A56
:1002D000401C2062F1E700255F462046E168884720
:1002E0002028064607DB312E05D2B81910F8200C5D
:1002F00008B10543F1E7A80701D525F00405C4F8C6
:100300001CA00027C4F818A02A2E09D0304602F0FD
:10031000EAFD38B304EB8708303EC8F8186019E0EE
:1003200059F8041B204604EB87029161E168884775
:10033000012F064618D1E069002820DA25F02005B3
:100340001DE0D8F8180000EB800006EB40003038C4
:10035000C8F818002046E1688847064602F0C3FD49
:100360000028EED1012F0AD02E2E08D12046E168B8
:1003700088477F1C0646022F45F02005C4DBA06994
:10038000002803DA404245F00105A061E80701D0EA
:1003900025F01005A6B1A6F14100192802D8203693
:1003A00045F400654A463146204625604D46FFF734
:1003B000D7FE60B1012807D0ED1D25F0070000E051
:1003C00007E000F1080978E705F1040975E7304610
:1003D0007AE7206ABDE8F09F1B3E00004FF0000264
:1003E00000B5134694469646203922BFA0E80C502B
:1003F000A0E80C50B1F12001BFF4F7AF090728BF06
:10040000A0E80C5048BF0CC05DF804EB890028BF81
:1004100040F8042B08BF704748BF20F8022B11F0AA
:10042000804F18BF00F8012B704770477047704726
:1004300070472DE9F0470D4699469246044600F173
:1004400024080168880604D5E06921F010012160C4
:1004500000E00120A84201DD471B00E00027A16960
:100460007A1902EB0900081AA0612078C00602D4AC
:100470002046FFF7C3FE002608E0D4E901211AF860
:1004800006009047206A401C761C20624E45F4DB33
:100490002078C0060AD52046FFF7B0FE06E0D4E972
:1004A000012130209047206A401C2062381EA7F1AD
:1004B0000107F4DC07E0D4E9012118F805009047B2
:1004C000206A401C2062281EA5F10105F3DC2046AD
:1004D000FFF7AAFE2078000602D50220BDE8F087CB
:1004E0000120FBE770472DE9FF4F0C461E464FF0F9
:1004F000FF378BB0D2E90001DDF860800A908A46B0
:10050000C1F30A5505B93D46002108464FF00000E9
:10051000BAF1000F00F4400005DA00EB80004FF460
:10052000400101EA50004FEA9059B9F1010F00DD96
:10053000B9460A9850EA4A000ED044F61050A5F287
:10054000FF3545432F14B8F1000F1ED07542291E08
:100550001EDDC9F100021CE0B8F1010F4FF00000F0
:1005600001D0302103E0F24305E02154401CB042A9
:10057000FBDB30460022002121540B99C1F8088092
:10058000C1E900200FB0BDE8F08FBD1B6D1CDEE798
:100590004A4600DA694206A800F068FA06AB93E81A
:1005A000070003AB83E8070050460A9900F046FBBA
:1005B0008DE80700A0F500501F3800900398002D2B
:1005C0000ADD42F21F014A460844002303A90390B2
:1005D000684600F0AFFD09E0A0F500504A461F381C
:1005E000002303A90390684600F0B9FD8DE80700D9
:1005F0000004000C03D04FF0FF30410800E010462B
:10060000B8F1000F03D00022009215461EE0751EBF
:1006100005D400F08DF9303262556D1EF9D5B34620
:100620000122084302D000227F1C04E020783028F9
:1006300001D100227F1E002A099784D01DE0112DD0
:1006400007DA00F075F9303262556D1C50EA01028C
:10065000F5D1084302D00098C8B10EE00021681E11
:1006600005E0235C625C63542254401E491C8142B5
:10067000F7DBAB46A81B401E0990002004F80B00D6
:100680000B98099AC0F80880C0E9002B7AE7112678
:100690004FF0000857E72DE9F04F88460446D21D79
:1006A00022F0070191B0D1E90001CDE90A0102F081
:1006B00006FC02460B98C00F01D02D2007E02068F1
:1006C000810701D52B2002E0202101EAC000032A86
:1006D000099001D0072A05DB03464146204600F079
:1006E00085F90BE12078800601D5E06900E006205D
:1006F000B8F1650F814606D0B8F1660F18D0B8F191
:10070000670F70D131E00020B9F1110F009001DBCB
:10071000112301E009F101030AAA01A90CA8FFF7BE
:10072000E2FEDDE90C70002609F10105834647E091
:1007300001204B4600904FF000470AAA01A90CA8DF
:10074000FFF7D1FEDDE90DB00C995D46002610B92A
:1007500009F101000D18B9EB050003D4C0F1FF3613
:1007600009F10105A5EB09002BE0B9F1010F01DA50
:100770004FF001090020B9F1110F0090484601DD4A
:10078000112300E003460AAA01A90CA8FFF7ABFE5B
:10079000DDE90C704D4600268346207800070AD418
:1007A000AB4500DA5D4601A8012D04DD411911F8C1
:1007B000011C302907D04F4502DA17F1040F04DA83
:1007C000012082460FE06D1EEEE7002F02DCED1BDC
:1007D0003E4403E0781CA84200DD7D1CB81B00F1FC
:1007E000010A4FF000472078000703D4AA4501DB37
:1007F0004FF0FF3A0021B7F1004F0DF143088DF89B
:10080000431024D002202B23002F01DA7F422D2316
:100810000A21021EA0F1010000DC5FB197FBF1FC90
:1008200097FBF1F201FB1C7C17460CF1300C08F829
:1008300001CDEEE7A8F1010003702188090501D57B
:10084000452100E06521A0F1010800F8011C09988C
:100850000FA9A1EB0807FF1D00B10120411901EB11
:10086000EA70A1693844081A401EA0612078C006C9
:1008700002D42046FFF7C2FC099828B1D4E901212F
:100880009047206A401C20622078C00622D520466E
:10089000FFF7B4FC1EE0002E04DBB34502DD01A827
:1008A000805D00E03020D4E901219047206A401C9F
:1008B0002062761CAAF101005FEA000A0AD100F06A
:1008C00033F8C0680168405CD4E901219047206A90
:1008D000401C2062281EA5F10105DCDC07E0D4E9FC
:1008E000012118F8010B9047206A401C2062381E35
:1008F000A7F10107F3DC2046FFF796FC032011B0B7
:1009000041E60000074B70B50D467B4400F05BF8F4
:100910000446284600F01CF910B14FF0FF3070BDBE
:10092000204670BDCB2600000048704734010020EF
:1009300030B5B0F10A024FEA900E71F100034EEAB1
:10094000817EB0EB0E0061EB91014FEA101E4EEA82
:10095000017E10EB0E0041EB11114FEA102E4EEA12
:10096000016E10EB0E0041EB11214FEA104E4EEAE2
:10097000014E10EB0E0041EB1141401841F1000116
:100980004FEAD00040EA41704FEAD10110EB8005F8
:100990004FEA810444EA907444EB01046D1944EB7E
:1009A0000404521BA3414FF0000348BF0A3200D594
:1009B00030BD401C41F1000130BD000001694A1CFE
:1009C00002610878704700B58FB0CDE90131002190
:1009D000059105497944CDE9031011466846FFF7B2
:1009E00061FC0FB000BD0000E5FFFFFF2DE9F04105
:1009F0001F46044603260168072A01F4006004DB51
:100A000008B116A505E016A503E008B115A500E09C
:100A100015A521F010002060A069C01EA0610FB1D3
:100A2000401EA0612046FFF7E9FB4FB1D4E9012148
:100A300038469047206A401C2062C01C206206E0B5
:100A4000206AFAE7D4E9012115F8010B9047761ED8
:100A5000F8D22046FFF7E8FBBDE8F0814E414E009A
:100A60006E616E00494E4600696E66002DE9F047E2
:100A7000814616468AB0354878440DC88DE80D0089
:100A800032487844801C03AC0DC884E80D0041F660
:100A90009B300844372190FBF1F290FBF1F5A5F172
:100AA000800501FB12041B3C02D56442012000E0DA
:100AB0000020DFF898A080460027FA44AAF1BE0A79
:100AC0000EE0E0070AD03246684607EB47010123F3
:100AD0000AEB810100F043FB8DE8070064107F1CE6
:100AE000002CEED1194F7F44AE3F19E0E80715D036
:100AF00007EB04100DF1180A90E80E008AE80E00CA
:100B0000C068F04201D1981908903246012306A925
:100B100003A800F024FB03AB83E807006D10641CFE
:100B2000002DE3D14FF0010332466946B8F1000FC2
:100B300003A802D000F0FEFA01E000F010FBC9E9C2
:100B40000001C9F808200AB0BDE8F087E4360000CB
:100B5000007B00F0800070470048704714010020BF
:100B60007546FFF7F9FFAE4605006946534620F08B
:100B70000700854618B020B5FFF722FBBDE82040EE
:100B80004FF000064FF000074FF000084FF0000B49
:100B900021F00701AC46ACE8C009ACE8C009ACE8FC
:100BA000C009ACE8C0098D46704710B50446AFF3E4
:100BB00000802046BDE81040FFF7EFBA4FF0013C3F
:100BC00050F8042B51F8043B9A4221D1A2EB0C03BC
:100BD000934313EACC1317D150F8042B51F8043B7C
:100BE0009A4215D1A2EB0C03934313EACC130BD119
:100BF00050F8042B51F8043B9A4209D1A2EB0C03A4
:100C0000934313EACC13DBD04FF00000704700BFD2
:100C1000D01A01BAB1FA81F101F0180122FA01F0FB
:100C2000CB40C1F12001DBB2C0B2C01A2CFA01F3F3
:100C3000D11A914311EAC311E6D170475FEA400C23
:100C400008BF91F0000F4FEA8C234FEAC12243EA1C
:100C500051514FEA1C5018BF00F5F0404FEA3000E8
:100C600018BF41F000415FEA6C5C00F02980BCF1E4
:100C7000FF3F08BF40F080407047130C06BF1204CE
:100C80004FF0100C4FF0000C130E04BF12020CF1C9
:100C9000080C130F04BF12010CF1040C930F04BFD6
:100CA00092000CF1020CD30F04BF52000CF1010CA6
:100CB00011464FF00002A0F11F00A0EB0C0070479E
:100CC00011F0004F08BF704731F000413FF4D5AF3D
:100CD0000B0C06BF09044FF0100C4FF0000C0B0E6C
:100CE00004BF09020CF1080C0B0F04BF09010CF141
:100CF000040C8B0F04BF89000CF1020CCB0F04BF56
:100D000049000CF1010CCCF12003A0EB0C0022FAFD
:100D100003F302FA0CF241EA030100F1010070470B
:100D200020F07F4C80EA030023F07F47ACEB070301
:100D300003F57C5300F0004003F1FF032DE98049E7
:100D40004FEA154B09B44FEA144325EA0B4E24EA47
:100D500003480FF2042606EB132749083E785FEAA2
:100D6000320203FB0667C7F5000707FB06F64FEAEA
:100D700054374FEAD64606F1020607FB066CCCF163
:100D8000005C4FEA1C472CEA074C07FB06F40CFBFF
:100D900006F504EB15464FEA961634BF00204FF0D7
:100DA00000404FEAD13706FB07FC4FEA1C4C0CFB16
:100DB0000BF7D21B03FB0CF761EB07010CFB0EF7E3
:100DC000B0EB074072EB17420CFB08F734BFA2EB05
:100DD0000742B2EB074261EB17414FEA0C444FEA7E
:100DE000910706FB07FC4FEA1C4C0CFB0BF7B0EB22
:100DF000C74072EB573203FB0CF734BFA2EBC7427C
:100E0000B2EBC74261EB57310CFB0EF7B0EBC700FA
:100E100072EB57720CFB08F734BFA2EBC702B2EBC0
:100E2000C70261EB5771039F4FEA816141EA92115A
:100E300004EBCC044FEAD1374FEA826206FB07FC91
:100E400042EA90124FEA80604FEA1C4C0CFB0BF711
:100E5000D21B03FB0CF761EB07010CFB0EF7B0EBA9
:100E6000074072EB17420CFB08F734BFA2EB0742B6
:100E7000B2EB074261EB17414FEA8C554FEA9107FD
:100E800004EB9C2406FB07FC4FEA1C4C0CFB0BF705
:100E9000B0EBC74072EB573203FB0CF734BFA2EB49
:100EA000C742B2EBC74261EB57310CFB0EF7B0EB18
:100EB000C70072EB57720CFB08F734BFA2EBC702F6
:100EC000B2EBC70261EB577115EB4C254FEA81611C
:100ED00041EA92114FEA82624FEAD13742EA901218
:100EE00006FB07FC44F100044FEA80604FEA1C4C0B
:100EF0000CFB0BF7D21B03FB0CF761EB07010CFBA0
:100F00000EF7B0EB074072EB17420CFB08F734BF4B
:100F1000A2EB0742B2EB074261EB174115EB1C1540
:100F20004FEA813141EA92414FEA823242EA9042ED
:100F30004FEA80304FEA0C7644F1000448EA03435C
:100F40004EEA0B484FF0000EB2EB080C71EB0307B2
:100F500024BF624639464EEB0E0E4FF0000B0018D0
:100F6000524149414BEB0B0BB2EB080C71EB030701
:100F70007BF1000B24BF624639464EEB0E0E4FF05C
:100F8000000B0018524149414BEB0B0BB2EB080C24
:100F900071EB03077BF1000B24BF624639464EEB31
:100FA0000E0E51EA020718BF46F0010616EB0E7648
:100FB00055F1000254F1000103D5BDE88901BDE8F7
:100FC0000088BDE88901BDE80048B619524141EBEF
:100FD0000101A3F10103704780807F7E7D7C7B7AD5
:100FE0007978777676757473727171706F6E6E6DD5
:100FF0006C6C6B6A6A69686867666665646463637B
:1010000062616160605F5F5E5E5D5D5C5C5B5B5A00
:101010005A5959585857575656555555545453536D
:1010200052525251515050504F4F4F4E4E4D4D4DC8
:101030004C4C4C4B4B4B4A4A4A4949494848484713
:101040004747474646464545454444444443434351
:101050004342424242414141002B9C4630D47700FA
:101060002BD01CB54FEA370703B44FF010004FF0F8
:101070001001BAF1000F06D0BCF1000FDCBF40F048
:10108000080040F008014FF000000FBCBDE8104020
:101090000BF1010BBBF1010F08BF5FEA170722BF7D
:1010A00012F1010211F101014FF0004143F100037F
:1010B00000F0004043EA00007047F9D35708D0E73A
:1010C00046EA064613F1400F4FEA16461FDD13F1BC
:1010D000200FDFBF16430A46002120335B42BED0FB
:1010E000C3F1200746EA064602FA07F74FEA16461A
:1010F00046EA0706C3F1200722FA03F201FA07F7CE
:1011000021FA03F14FF0000342EA0702A7E746EA9B
:10111000020646EA06464FEA164646EA0106BCBF04
:1011200046EA0646360C4FF000034FF000024FF03F
:10113000000194E72DE9804C9A46934670B491E8FB
:10114000380007C831EA400C48BF34EA430C03D5E5
:10115000FFF7E6FDFFF780FFF0BCBDE8008C2DE94E
:10116000804C9A46934670B491E8380007C810F056
:10117000804F08BF13F0804F03D100F005F8FFF750
:101180006BFFF0BCBDE8008C20F07F4780EA0300D5
:1011900023F07F4C07EB0C03A3F57C5300F00040D9
:1011A000A3F1FE0392F0000F00F0B38095F0000F62
:1011B00000F077802DE901494FEA11404FEA1446CB
:1011C00021EA004800FB06FC24EA064708FB06F675
:1011D00007FB08F800FB07F718EB06484CEB164C2A
:1011E0004FEA124B18EB07484FEA15464CEB1740F5
:1011F00022EA0B4E0BFB06FC25EA06470EFB06F621
:1012000007FB0EFE0BFB07F71EEB064E4CEB164CD6
:101210004FF000061EEB074E4CEB174B18EB0B087C
:1012200040F1000018EB0E0B58EB000840F10000F5
:101230008F1A4FF000013CBFC943661B14BFB5EBCA
:10124000040C00213CBFC943F61B4FEA17444EEA89
:101250008E0E27EA04454FEA1C4704FB07622CEA7E
:10126000074C05FB07F70CFB05F604FB0CFC16EB23
:10127000074642EB174216EB0C4642EB1C421BEBB7
:10128000060658EB0202414146EA9E0601D5BDE83A
:101290000189B619524141EB0101A3F10103BDE8F7
:1012A00001894FEA14454FEA114724EA054621EA2D
:1012B000074C05FB07F406FB07F70CFB06F105FBE3
:1012C0000CFC11EB074144EB17444FEA124711EBBA
:1012D0000C4144EB1C4422EA074C05FB07F206FBD9
:1012E00007F70CFB06F605FB0CFC16EB074642EB7A
:1012F000174216EB0C4642EB1C456A1854F10001EC
:1013000048BF7047B619524141EB0101A3F10103F7
:10131000704795F0000F37D04FEA11424FEA14475B
:1013200021EA024624EA074C02FB07F106FB07F715
:101330000CFB06F402FB0CFC14EB074441EB1741D9
:101340004FEA154714EB0C4441EB1C4125EA074CCE
:1013500002FB07F506FB07F70CFB06F602FB0CFC8D
:1013600016EB074645EB174516EB0C4645EB1C42C2
:10137000121951F1000148BF7047B619524141EBB3
:101380000101A3F1010370474FEA14454FEA1147E9
:1013900024EA054621EA074C05FB07F106FB07F79F
:1013A0000CFB06F24FF0000605FB0CFC12EB0742AB
:1013B00041EB174112EB0C4251EB1C4148BF704707
:1013C000921841EB0101A3F10103704700BFFEE752
:1013D00030B502460B46AA20002113E0555C684058
:1013E00000240BE000F0800525B14506280E80F0B2
:1013F0002F0001E04506280E651CECB2082CF1DB3D
:101400004D1CE9B29942E9DB30BD10B500F09EFFFA
:10141000012001F05DF800BF212001F027F800282D
:10142000FAD0022000F06EFB102000F05DFB4FF4BC
:101430006011002001F070F8012001F067F800BF92
:10144000392001F013F80128FAD1022001F072F8D6
:1014500000BF01F029F80828FBD1002001F02CF88A
:101460004FF4806001F03AF8002001F043F80020CA
:1014700000F040FF10BD70472DE9F0470446884654
:101480001646304601F0BAFD0746A246002511E097
:10149000781E401BC1B20A2001F0E8FE8146B6FB6F
:1014A000F9F030302070B6FBF9F009FB1066641CCF
:1014B000681CC5B2BD42EBDB47450ADA002504E0F3
:1014C00030202070641C681CC5B2A8EB0700A8423D
:1014D000F6DC00202070A4EB0A0080B2BDE8F087A3
:1014E0002DE9F047044688461646304601F086FD51
:1014F0000746A24647450ADA002504E0202020706E
:10150000641C681CC5B2A8EB0700A842F6DC0025E5
:1015100011E0781E401BC1B20A2001F0A7FE8146EF
:10152000B6FBF9F030302070B6FBF9F009FB10661D
:10153000641C681CC5B2BD42EBDB00202070A4EB2C
:101540000A0080B2BDE8F0872DE9F04188B0054679
:1015500020216846FEF742FF6C461748016828467E
:1015600002F0C4FB804602F0DBF921F000410646A0
:10157000124A134B01F0B0FF02D208B0BDE8F0816F
:101580000D48056041202070641C3A202070641CC6
:10159000042303222946204600F098FC044420201E
:1015A0002070641C67202070641C6A460621142089
:1015B00000F084FE00BFE0E7140000202D431CEB88
:1015C000E2361A3F10B503A20121132000F076FE87
:1015D00010BD00007777772E7869616F6A696A6954
:1015E0006A692E636F6D000010B500221146104627
:1015F00000F01AFE01220221002000F015FE10BDAD
:1016000010B502211648007800F024FD1548007836
:1016100090B913480078401C1149087008460078BA
:101620002D2802DB01200F490870012202210C48FD
:10163000007800F0F9FD11E009480078401E0849E3
:10164000087008460078002802DC00200549087070
:10165000002202210248007800F0E6FD10BD0000E3
:1016600004000020050000202DE9F04188B0054667
:1016700020216846FEF7B2FE6C461A4801682846EB
:1016800002F034FB804602F04BF921F0004106469F
:10169000154A164B01F020FF02D208B0BDE8F081D8
:1016A0001048056050202070641C3A202070641C93
:1016B000042303222946204600F008FC044420208D
:1016C0002070641C6B202070641C50202070641CEF
:1016D00061202070641C6A460421142000F0EEFD95
:1016E00000BFDAE70C0000202D431CEBE2361A3F66
:1016F00010B588B020216846FEF770FE6C460D4894
:101700000088401C0B4908800846008842F20F718F
:10171000884202DD0020074908800422054801882C
:10172000204600F019FC6A460321672000F0C6FD40
:1017300008B010BD0600002010B588B02021684612
:10174000FEF74CFE6C4652202070641C6520207011
:10175000641C3A202070641C04220021204600F002
:10176000FBFB6A460321552000F0A8FD08B010BD20
:101770002DE9F04188B0054620216846FEF72EFE8F
:101780006C4617480168284602F0B0FA804602F01D
:10179000C7F821F000410646124A134B01F09CFEA7
:1017A00002D208B0BDE8F0810D48056054202070D9
:1017B000641C3A202070641C04230322294620461E
:1017C00000F084FB044420202070641C7F202070E3
:1017D000641C6A460521142000F070FD00BFE0E79C
:1017E000100000202D431CEBE2361A3F70B588B084
:1017F000054620216846FEF7F1FD6C460426AE4200
:1018000001D108B070BD2E4635B1012D0BD0022D8F
:1018100010D0032D1CD114E04C202070641C4620F5
:101820002070641C15E052202070641C462020703B
:10183000641C0EE04C202070641C42202070641C4C
:1018400007E052202070641C42202070641C00E0DD
:1018500000BF00BF6A4603213D2000F02FFD00BFFE
:10186000CFE7000030B589B00446202101A8FEF77B
:10187000B5FD01AD214800782178884210D11F487C
:101880004078617888420BD11C488078A1788842E2
:1018900006D11A48C078E178884201D109B030BD3C
:1018A00020781649087060784870A0788870E078D1
:1018B000C870492028706D1C442028706D1C3A2087
:1018C00028706D1C2178284600F050FB0544617893
:1018D000284600F04BFB0544A178284600F046FB63
:1018E0000544E178284600F041FB054401AA0221A5
:1018F0003D2000F0E3FC00BFD0E70000080000201E
:1019000010B588B020216846FEF768FD6C46492076
:101910002070641C44202070641C3A202070641CD9
:1019200058202070641C2070641C2070641C20707F
:10193000641C2070641C2070641C2070641C207067
:10194000641C6A4602213D2000F0B8FC08B010BDBE
:1019500010B503A20021132000F0B0FC10BD000060
:1019600054504D5320526563656976657220563236
:101970002E3500002DE9F04188B00546202168464B
:10198000FEF72CFD6C4617480168284602F0AEF9B8
:10199000804601F0C5FF21F000410646124A134B74
:1019A00001F09AFD02D208B0BDE8F0810D48056053
:1019B00056202070641C3A202070641C04230322EB
:1019C0002946204600F082FA044420202070641C3E
:1019D00076202070641C6A460721142000F06EFCFB
:1019E00000BFE0E7180000202D431CEBE2361A3F51
:1019F00010B513480078F0B9002404E00020114924
:101A00000855601C84B2402CF8D30E4800F0B2FE9A
:101A10000B490870084600780D2801DA002008708C
:101A20000D210848FFF7D4FC0649497B884202D0C3
:101A3000002003490870012000F006F810BD0000E6
:101A40003000002054000020014908607047000069
:101A500014040140002123498279002A3AD00A4621
:101A6000126803689A430B461A600A1D12680368DD
:101A70009A430B1D1A60027911440A6803681A43DD
:101A80000A60184A0832126803689A43154B0833F3
:101A90001A601A1D126803689A43124B0C331A60BD
:101AA0004279102A0ED11A1F126803681A430D4B8F
:101AB00008331A601A1D126803681A43094B0C3365
:101AC0001A600DE00749427911440A6803681A4315
:101AD0000A6005E0027911440A6803689A430A60C3
:101AE00070470000000401400549096821F0100119
:101AF000034A1160114609680143116070470000F4
:101B00000020024001460020034A106800F038001F
:101B100008431060704700000020024030B50022EA
:101B20008B071C0F0F2303FA04F20B4B8C1053F896
:101B300024309343084C8D1044F8253023468C10F4
:101B400053F824308C07240F00FA04F42343024C8A
:101B50008D1044F8253030BD080001402DE9F041DA
:101B6000024600250026002000230024002791F8CB
:101B700003C00CF00F0591F803C00CF0100CBCF181
:101B8000000F03D091F802C04CEA050591F800C09F
:101B9000BCF1000F31D0146800202BE04FF0010C95
:101BA0000CFA00F3B1F800C00CEA03069E4220D103
:101BB00083004FF00F0C0CFA03F7BC4305FA03FC4B
:101BC0004CEA040491F803C0BCF1280F06D14FF091
:101BD000010C0CFA00FCC2F814C00AE091F803C032
:101BE000BCF1480F05D14FF0010C0CFA00FCC2F813
:101BF00010C0401C0828D1D31460B1F800C0BCF15B
:101C0000FF0F34DD546800202EE000F1080C4FF087
:101C1000010808FA0CF3B1F800C00CEA03069E4272
:101C200021D183004FF00F0C0CFA03F7BC4305FAE7
:101C300003FC4CEA040491F803C0BCF1280F05D161
:101C400000F1080C08FA0CF8C2F8148091F803C0EF
:101C5000BCF1480F07D100F1080C4FF0010808FA59
:101C60000CF8C2F81080401C0828CED35460BDE8A0
:101C7000F08102460020D3680B400BB1012000E048
:101C800000207047416170470161704700BFFEE767
:101C900008B50121042000F049FBC020ADF8000088
:101CA00014208DF8030003208DF8020069460448D3
:101CB000FFF754FFC0210248FFF7E6FF08BD000010
:101CC000000C014070B504461248006820F07040D6
:101CD000104908600846006840F040500860002045
:101CE0000D490860002511E0042001F04FF9E009DA
:101CF0000949091D08606006040E01200749C1F862
:101D00009801002004490860681CC5B2082DEBDB6F
:101D100070BD0000000C01409881214200802142EA
:101D200010B50F48006820F070400D490860084663
:101D3000006840F04050086001200A4908600A49E4
:101D4000C1F89801022001F021F90020054908603E
:101D5000022001F01BF900200349C1F8980110BDD1
:101D6000000C01409C8121420080214210B50F48A7
:101D7000006820F070400D4908600846006840F097
:101D80004050086000200A4908600A49C1F89801DB
:101D9000022001F0FBF801200549091F08600549F0
:101DA000C1F89C01022001F0F1F810BD000C0140C7
:101DB0009C8121420080214210B51248006820F029
:101DC0007040104908600846006840F08040086094
:101DD00001200D4908600D49C1F8980107E0601C19
:101DE000C4B2FA2C03DDFFF7C1FF012010BD064885
:101DF000803800680028F2D10349091F086000BF3D
:101E0000F4E70000000C01409C8121420080214247
:101E100008B50121042000F089FA0121082000F012
:101E200085FA14208DF803000120ADF8000003208E
:101E30008DF8020069460D48FFF790FE14208DF8DA
:101E400003004FF40040ADF8000003208DF80200BD
:101E500069460748FFF782FE01210448FFF714FF97
:101E60004FF400410248FFF70FFF08BD0008014092
:101E7000000C014010B54FF400410848FFF7F9FE8F
:101E80000446012C04D1C1030448FFF7FBFE04E023
:101E90004FF400410148FFF7F7FE10BD000C014070
:101EA00010B501210748FFF7E4FE0446012C04D1D8
:101EB00001210448FFF7E6FE03E001210148FFF796
:101EC000E3FE10BD0008014000BFFEE72DE9FF5F03
:101ED00004460D46174698460021284601F006FEA6
:101EE00005D285F000452D202070641C02E02020E2
:101EF0002070641C284601F0ADFD039041460A2085
:101F000001F0B4F9009001F0C5FD0190039801F0D3
:101F1000D9FD2946009001F0E9FE8346019901F0C0
:101F200019FE029001F096FD824639462046039A3A
:101F3000FFF7D6FAC6B234442E202070641C5246F5
:101F400041462046FFF798FA00F0FF0906EB09002A
:101F5000801C04B0BDE8F09F70B506460C461546DF
:101F6000224629463046FFF7BBFA70BD02460811EB
:101F7000107010780A2803DA10783030107008E0FA
:101F800010780F2803DC10783730107001E0202023
:101F90001070521C01F00F00107010780A2803DA3C
:101FA00010783030107008E010780F2803DC1078BB
:101FB0003730107001E020201070521C0220704752
:101FC000704710B54FF4407000F03AF810BD0000B3
:101FD00070B5002100230F22C47804B3154C246887
:101FE00004F4E064C4F5E064210AC1F10403CA40CA
:101FF000447804FA03F184781440214309010E4C1B
:102000000678A155047804F01F050124AC4005783A
:102010006D11AD0005F1E025C5F8004109E0047837
:1020200004F01F050124AC40044D0678761145F8F4
:10203000264070BD0CED00E000E400E080E100E02F
:1020400002490143024A1160704700000000FA058E
:102050000CED00E070B506460D462946304600F00E
:10206000D1F8002404E0002000F0AEF8601CC4B2F7
:10207000102CF8DB681CC1B2304600F0C3F8002415
:1020800004E0002000F0A0F8601CC4B2102CF8DBC3
:1020900070BD70B5002418E0002504F0070141F080
:1020A000B00000F073F8284600F070F845F010001A
:1020B00000F06CF8002604E0002000F085F8701CA9
:1020C000C6B2802EF8DB601CC4B2082CE4DB70BD05
:1020D00010B5FFF7DDFD4FF4967000F031FFAE2034
:1020E00000F054F8002000F051F8102000F04EF8F5
:1020F000402000F04BF8812000F048F8CF2000F09D
:1021000045F8A12000F042F8C82000F03FF8A620D2
:1021100000F03CF8A82000F039F83F2000F036F835
:10212000D32000F033F8002000F030F8D52000F084
:102130002DF8802000F02AF8D92000F027F8F120AF
:1021400000F024F8DA2000F021F8122000F01EF848
:10215000DB2000F01BF8402000F018F8202000F0F1
:1021600015F8022000F012F88D2000F00FF814206E
:1021700000F00CF8A42000F009F8A62000F006F802
:10218000FFF787FFAF2000F001F810BD70B50546DE
:102190000024FFF7C5FD7820FFF794FDFFF70CFE44
:1021A00004430020FFF78EFDFFF706FE0443284698
:1021B000FFF788FDFFF700FE0443FFF7D7FD0CB1E2
:1021C000002070BD0120FCE770B505460024FFF734
:1021D000A7FD7820FFF776FDFFF7EEFD04434020D2
:1021E000FFF770FDFFF7E8FD04432846FFF76AFD9F
:1021F000FFF7E2FD0443FFF7B9FD0CB1002070BD0D
:102200000120FCE770B504460D4605F1B001C8B2E7
:10221000FFF7BCFF102141EA1410FFF7B7FF04F0ED
:102220000F00FFF7B3FF70BD2DE9F04107460E46E2
:10223000154631463846FFF7E5FF002407E00F4911
:1022400001EB4511085DFFF7BFFF601CC4B2102C05
:10225000F5DB701CC1B23846FFF7D4FF002409E05B
:10226000064901EB451204F11001505CFFF7ACFF89
:10227000601CC4B2102CF3DBBDE8F0812E400008D6
:102280002DE9F04106460F46154639463046FFF720
:10229000B9FF00240BE0A5F1200101EB4101064A42
:1022A00002EB4101085DFFF78FFF601CC4B2062CF2
:1022B000F1DBBDE8F0810000EE3D00082DE9F041C2
:1022C00004460F46154600260EE0AA5D3946204614
:1022D000FFF7D6FFA01DC4B2A01D7F2802DD002499
:1022E000781CC7B2701CC6B2A85D0028EDD1BDE84D
:1022F000F081704701460020034A506820F44040B6
:1023000008435060704700000010024029B1064A9F
:10231000D2690243044BDA6104E0034AD269824382
:10232000014BDA61704700000010024029B1064AF3
:1023300092690243044B9A6104E0034A9269824322
:10234000014B9A6170470000001002400F4800687E
:1023500040F001000D490860084640680C490840FB
:102360000A494860084600680A4908400749086069
:102370000846006820F4802008600846406820F481
:10238000FE0048604FF41F00886070470010024054
:102390000000FFF8FFFFF6FE30B500210022002408
:1023A00000232D4D6D6805F00C0121B1042905D0E5
:1023B000082923D105E0294D056022E0274D05605D
:1023C0001FE0254D6D6805F47012234D6D6805F40E
:1023D0008034022505EB92421CB9214D554305601E
:1023E0000BE01D4D6D6805F400351DB11C4D5543C6
:1023F000056002E0194D5543056002E0174D056088
:1024000000BF00BF144D6D6805F0F0010909154DBE
:102410006B5C0568DD4045600F4D6D6805F4E0615B
:10242000090A104D6B5C4568DD4085600A4D6D689A
:1024300005F46051C90A0B4D6B5C4568DD40C56011
:10244000054D6D6805F44041890B074D6B5CC5680F
:10245000B5FBF3F5056130BD0010024000127A00B3
:1024600000093D003E0000204E00002010B501464E
:102470000022002300204A11012A02D1094C2368BE
:1024800006E0022A02D1074C236A01E0054C636A88
:1024900001F01F02012494401C400CB1012000E017
:1024A000002010BD001002400248406800F00C00FF
:1024B000704700000010024001460020034A5068A7
:1024C00020F0F00008435060704700000010024008
:1024D00001490860704700000000424201460020A8
:1024E000034A506820F4E0600843506070470000E1
:1024F0000010024001460020034A506820F460505A
:1025000040EAC1005060704700100240014908666F
:10251000704700000000424202460020044B586809
:1025200020F47C1042EA01031843014B58607047C5
:102530000010024001460020034A506820F00300CA
:1025400008435060704700000010024000B587B09B
:1025500001210420FFF7EAFE01210803FFF7E6FE50
:10256000E020ADF8180018208DF81B0003208DF82E
:102570001A0006A91748FFF7F1FAE0211548FFF7FE
:1025800083FB0020ADF804004FF48270ADF8060024
:102590000020ADF808000220ADF80A000120ADF8D7
:1025A0000C004002ADF80E003820ADF810000020FD
:1025B000ADF812000720ADF8140001A9064800F09C
:1025C00065F80121044800F047F8FF2000F006F804
:1025D00007B000BD000801400030014070B505465D
:1025E000002405E0601CC4B2C82C01DD002070BDD1
:1025F00002210E4800F03CF80028F3D029460B4891
:1026000000F042F8002405E0601CC4B2C82C01DDD3
:102610000020ECE70121054800F02AF80028F3D05B
:10262000024800F02EF8C0B2E1E70000003001409F
:1026300010B50446074800884FF6C77108400549A1
:10264000088008460088204308800121014800F0E6
:1026500003F810BD0030014021B1028842F0400271
:10266000028004E002884FF6BF731A400280704770
:102670000246002013890B400BB1012000E000202E
:1026800070470146888970478181704710B50022E4
:10269000028802F441520B884C8823438C882343E0
:1026A000CC8823430C8923434C8923438C892343BF
:1026B000CC8923431A430280838B4FF2FF7423405B
:1026C00083830B8A038210BD7047042808D14FF022
:1026D000E021096941F004014FF0E022116107E0B7
:1026E0004FF0E021096921F004014FF0E02211616F
:1026F0007047704708B501210420FFF717FE10202E
:102700008DF80300ADF8000003208DF80200694643
:102710000D48FFF723FA10208DF803000820ADF8CC
:10272000000003208DF8020069460748FFF716FAFB
:10273000FFF70CFF1820FFF77BFF012000F006F8E1
:1027400000F058F808BD00000008014010B504462C
:10275000012C07D108210648FFF796FAC82000F09F
:10276000EFFB03E008210248FFF78CFA10BD0000E0
:10277000000801402DE9F04107460025002600240D
:10278000A04610211A48FFF77DFA23E00420FFF746
:1027900025FF002507E0FF20FFF720FF05EB86015E
:1027A0007854681CC5B2042DF5DBFF20FFF716FF37
:1027B000044604F0800010B10020BDE8F081002C38
:1027C00005DD08EB040000F0FF08701CC6B2202CE9
:1027D00000D000E0DAE700BF10210548FFF754FA07
:1027E00008F10701C81701EB5070C0F3C700E4E718
:1027F000000801401FB501210846FFF797FD0121A0
:102800000820FFF793FD48208DF80F000120ADF858
:102810000C0003208DF80E0003A91248FFF79EF963
:1028200000210120FFF77AF9012001900C208DF89A
:10283000090000208DF8080001208DF80A0001A889
:10284000FFF708F906208DF800000E208DF8010032
:1028500000208DF8020001208DF803006846FFF784
:10286000B7FB1FBD000C014010B500240AE0074A69
:1028700002EB44025178054A12F8140000F008F8FF
:10288000601CC4B21E2CF2DB10BD00006F400008BB
:1028900070B505460C4610210848FFF7F3F90220F1
:1028A000FFF79CFE2846FFF799FE2046FFF796FEAD
:1028B00010210248FFF7E8F970BD00000008014050
:1028C00010B504462146024800F02AF810BD000069
:1028D0000004004010B501210C4800F02DF840B173
:1028E00001210A4800F019F809480068401C08490D
:1028F0000860074800684FF4FA71B0FBF1F201FB81
:10290000120008B9FFF7CCFA10BD00000004004027
:1029100034000020CA4302827047CA4302827047D3
:1029200021B1028842F00102028004E002884FF6E1
:10293000FE731A400280704730B502460020002323
:102940000024158A05EA0103958905EA010413B1FB
:102950000CB1012000E0002030BD1AB183890B4387
:10296000838102E083898B43838170470022028840
:102970001D4B98420ED01D4B98420BD0B0F1804FAA
:1029800008D01B4B984205D01A4B984202D01A4BE4
:10299000984204D14FF68F731A404B881A43174B55
:1029A000984207D0164B984204D04FF6FF431A4086
:1029B000CB881A4302808B8883850B8803850A4B5A
:1029C00098420BD0094B984208D00E4B984205D044
:1029D0000D4B984202D00D4B984201D10B7A0386E1
:1029E0000123838270470000002C01400034014025
:1029F0000004004000080040000C004000100040AF
:102A000000140040004001400044014000480140E3
:102A10002DE9F05F82469AF801009AF8001040EA2A
:102A200001200FFA80FBABF1010000F02BFD804686
:102A3000064A074B00F08CFD06460022054B00F0CD
:102A400085FE044600F038FCBDE8F09F6EA301BC93
:102A50000512A43F000024402DE9F05F82469AF859
:102A600001009AF8001040EA01200FFA80FBABF158
:102A7000010000F007FD8046064A074B00F068FDA4
:102A800006460022054B00F061FE044600F014FCEF
:102A9000BDE8F09F2575029A081BBE3F00003E402E
:102AA0002DE9F05F82469AF801009AF8001040EA9A
:102AB00001200FFA80FBABF1010000F0E3FC80463F
:102AC000064A074B00F044FD06460022054B00F085
:102AD00025FC044600F0F0FBBDE8F09FF4FDD4783F
:102AE000E926F93F000059402DE9F047824650465B
:102AF00000F0DFFC80460022064B00F029FD064670
:102B00000022054B00F022FE044600F0D5FBBDE894
:102B1000F08700000000F03F00804B402DE9F047B7
:102B20008246504600F0C5FC8046074A074B00F03D
:102B30000FFD0646044A5242054B00F0EFFB0446E7
:102B400000F0BAFBBDE8F0877B14AE47E17A843F22
:102B50001E85F33F7FB504460D4601210220FFF795
:102B6000D5FB0020ADF80A00ADF80600ADF808402E
:102B7000681E80B2ADF8040001A90E48FFF7F6FE0A
:102B80001D208DF8000001208DF803000E208DF827
:102B9000010000208DF802006846FFF719FA0121B4
:102BA0000448FFF7B7FE012211460248FFF7D5FEA1
:102BB0007FBD00000004004010B540F225511948C7
:102BC00000F0B7F860B3174800F06EF9C4B22046C1
:102BD00000F086F80D2C0FD013481449098844548E
:102BE00012490988481CC11700EB5161C911A0EBBB
:102BF000C1110E4A118013E000210C4A1088C2173F
:102C000000EB5262D211A0EBC212074B9954074855
:102C1000008840F48070054908800A2000F060F8C0
:102C200010BD000000380140940000203C0000204E
:102C300010B586B0044601210420FFF777FB01217F
:102C40008803FFF773FB18208DF817004FF400700E
:102C5000ADF8140003208DF8160005A91E48FEF7F4
:102C60007DFF04208DF817000002ADF8140003204A
:102C70008DF8160005A91848FEF770FF0194002092
:102C8000ADF810000C20ADF80E000020ADF80C00DF
:102C9000ADF80A00ADF8080001A9104800F098F856
:102CA00025208DF800000F208DF8010000208DF800
:102CB000020001208DF803006846FFF789F9012220
:102CC00040F22551054800F05EF80121034800F06C
:102CD00017F806B010BD00000008014000380140A0
:102CE00010B5044600BF4021044800F015F8002844
:102CF000F9D02146014800F0DCF810BD0038014051
:102D000021B1828942F40052828104E082894DF629
:102D1000FF731A408281704702460020B1F5007FA0
:102D200000D100BF13880B400BB1012000E0002050
:102D3000704770B50246002400230025002040F6AD
:102D40006A16B14200D100BFC1F3421501F01F0362
:102D5000012606FA03F3012D02D19689334006E0DD
:102D6000022D02D1168A334001E0968A33400C12BC
:102D7000012606FA04F41688344013B10CB1012080
:102D800000E0002070BDF0B50346002400260025B9
:102D9000002040F66A17B94200D100BF1846C1F3BF
:102DA000421401F01F06012707FA06F5012C01D194
:102DB0000C3004E0022C01D1103000E014301AB1C4
:102DC00007682F43076002E00768AF430760F0BD64
:102DD0002DE9F04786B005460E460024A24600BF06
:102DE000A1460027B08900B100BF2F462C8A4CF6BF
:102DF000FF700440F08804432C82AC894EF6F31037
:102E00000440B08831890843718908430443AC8188
:102E1000AC8A4FF6FF400440B0890443AC8201A85D
:102E2000FFF7BAFA1F48874202D1DDF810A001E08F
:102E3000DDF80CA0A88900F4004040B10AEBCA00FC
:102E400000EB0A1031684900B0FBF1F807E00AEB2B
:102E5000CA0000EB0A1031688900B0FBF1F8642069
:102E6000B8FBF0F004012009642101FB1089A88956
:102E700000F4004040B1322000EBC900B0FBF1F09B
:102E800000F00700044308E0322000EB0910642141
:102E9000B0FBF1F000F00F0004432C8106B0BDE858
:102EA000F08700000038014001468888C0F3080020
:102EB0007047C1F308028280704700BFFEE74900F7
:102EC00050EAC12018BF04204A0D18BF40F001008D
:102ED00040F2FF72B2EB515F08BF40F002000128E0
:102EE00008BF0520704730380A2801D201207047FA
:102EF00000207047014600BF7047000010B56FF01A
:102F00000400FFF7E2FB0A4800680A49B0FBF1F051
:102F1000094908700846007800EB4001C1EBC01079
:102F20004FF6FF7101EAC0000449088010BD00009F
:102F30001C00002000127A00000000200200002087
:102F40000146114A12884A434FF0E0235A61002299
:102F50009A611A46126942F001021A6100BF4FF0ED
:102F6000E022106900F001021AB100F48032002A58
:102F7000F5D04FF0E022126922F001024FF0E02379
:102F80001A6100229A617047020000200146114A2E
:102F900012784A434FF0E0235A6100229A611A46A0
:102FA000126942F001021A6100BF4FF0E02210697D
:102FB00000F001021AB100F48032002AF5D04FF07F
:102FC000E022126922F001024FF0E0231A61002290
:102FD0009A6170470000002070B504460D4600BF9E
:102FE00040210548FFF798FE0028F9D0E1B20248D9
:102FF000FFF75FFF204670BD003801400146002208
:10300000002900DA494204E0501CC2B20A2091FBB8
:10301000F0F10A2091FBF0F00028F5DC501CC0B262
:103020007047000008B5FEF7F0F9FEF7CAFFFFF79A
:1030300065FFFEF7EDFE4FF4E130FFF7F9FD4021AB
:103040004FF47A70FFF786FD0120FFF739FCFFF798
:103050003FF8FEF7C9FAFEF7B5FAFEF779FCFEF77E
:103060004FFCFEF769FB0020FEF7FEFA0020FEF79A
:103070007FFB0020FEF768FA0020FEF77BFCFFF7DD
:1030800039FBFFF7F1FB80E04048007800287CD056
:103090003F4CFEF7EFFEFEF72BFBFEF7B1FA2046A2
:1030A000FEF7E0FB2079FEF7A1FB601DFFF7F8FCBF
:1030B0000546FEF7D9FAE079FFF716FD0546FEF75B
:1030C00057FB04F10B00FFF7C7FC0546FEF73CFA7F
:1030D000207AFFF723FD0546FEF74CFC2DA0FDF7F7
:1030E00081F834A0FDF77EF8E0780090A37862784C
:1030F000217835A0FDF776F821793CA0FDF772F82C
:10310000601DFFF7CDFC074600F00AFC05462A4685
:103110000B463CA0FDF766F8E079FFF7E5FC0746B3
:1031200000F0FEFB05462A460B463CA0FDF75AF888
:1031300004F10900FFF76CFC074600F0F1FB0546BF
:103140002A460B463AA0FDF74DF804F10B00FFF7B5
:1031500083FC074600F0E4FB05462A460B4639A0EF
:10316000FDF740F8207AFFF7D9FC074600F0D8FBBE
:1031700005462A460B4638A0FDF734F805A0FDF7B2
:1031800031F800200149087000BF7DE730000020C1
:10319000540000202A2A2A2A2A2A2A2A2A2A2A2AC3
:1031A0002A2A2A2A2A2A2A2A2A2A2A2A2A2A2A2A7F
:1031B0002A0D0A004765742061206D65737361678D
:1031C000653A0D0A00000000556E69717565494445
:1031D00020202020203A2530325825303258253002
:1031E0003258253032580D0A0000000054797265BB
:1031F000506F736974696F6E203A253032580D0A2A
:1032000000000000507265737375726520202020E5
:10321000203A25666B50610D0A00000054656D7000
:103220006572617475726520203A25660D0A00008A
:10323000416363656C65726174696F6E583A2566A7
:10324000670D0A00416363656C65726174696F6E36
:103250005A3A2566670D0A00566F6C7461676520DF
:1032600020202020203A2566760D0A0010B502465F
:10327000144609B9012010BD002302E05443581C34
:10328000C3B2481E9842F9DC2046F4E710B5002985
:103290000AD00878002807D005487844FDF78EFC4E
:1032A000002801D0002010BD0248784410BD000065
:1032B000FE0E0000F60E000021F00042A2F1605266
:1032C000B2F5801F01F0004328BFD2F17F6C0BD90B
:1032D0005FEA001C43EAC20242EB507018BF70471D
:1032E00028BF20F001007047B2F5801FBCBF184610
:1032F00070474FEA410C1CF5001F02D2084600F04F
:10330000F0BC70B500F0CEF900000089FFF7F6BF01
:103310004FF00040A0F580007047000010B591EA22
:10332000030F48BF83F0004300F11882841A71EB49
:10333000030C05D2121943EB0C03001B61EB0C01CB
:10334000DFF824E14FEA1154A4EB135C1EEA430FAB
:1033500018BF9EEA445F73D023EA0E03DCF1200E0F
:1033600021EA045143F4801332D322FA0CFE10EB0D
:103370000E0023FA0CFE41EB0E01CCF1200E03FAF5
:103380000EFE10EB0E0051F10001B1F5801FCCF1E3
:10339000200E32D201EB045112FA0EF2BDE81040B9
:1033A00058BF7047401C38BF5FEA420218BF7047E1
:1033B000002814BF20F0010041F100014FEA410351
:1033C00013F5001F38BF7047A1F1C04100F0B8B934
:1033D000012A43EB0302ACF1200CDCF11F0E32BFDB
:1033E0004FF0000E23FA0CF310EB030041EB0451F5
:1033F000B4EB115FD0D0A1EB045101F58011490865
:103400005FEA300001EB04510ED350F1000038BFE9
:1034100012FA0EFE08D1BDE81040C9E7401C38BFC3
:103420005FEA4202CAD1C3E7BDE810404FEA410358
:1034300013F5001F38BF7047A1F1C04100F080B9FB
:103440009EEA445F08D011EA5E0FBDE8104004BF59
:1034500001F0004100207047BDE8104070B500F059
:1034600021F900BF64FBBE3E0000E0FF491058BFD9
:10347000C1F140415B1058BFC3F140438B42EFF3B1
:103480000080704710F0004248BF4042B0FA80F31D
:1034900010FA03F10AD0C3F11D0303F580634FEA6C
:1034A000415002EB035202EBD12170474FF0000074
:1034B0007047B0FA80F310FA03F10AD0C3F11D038C
:1034C00003F580634FEA41504FEA035202EBD121EA
:1034D00070474FF00000704751EA030C17D41CF5F9
:1034E000801F58BFBCF5801F00F10680994218BFAD
:1034F000704708BF9042704707D711F5801F58BF2B
:1035000013F5801F19D499427047894270471CF502
:10351000801F08D5BCF5801FF7D58B4218BF7047B8
:1035200008BF824270474FF4001C1CEB410F38BFAC
:103530001CEB430F01D28B42704770B500F0B2F81C
:10354000922449004FF000514FF08053FFF78EBF97
:10355000DFF848C170B51CEA111E1EBF1CEA131526
:103560009EEA0C0F95EA0C0F00F06F8081EA0304CD
:1035700023EA4C134EEAD47E21EA4C1141F4801127
:1035800043F48013AE44A1FB024CA0FB0365AEF1F3
:103590007F7E361955EB0C05A1FB034C4CF1000363
:1035A000A0FB021C16EB0C06654153F10003094217
:1035B00018BF46F0010613F4007F0BD14FEA033128
:1035C0004FEA0530340341EA155140EA16506FF0D6
:1035D00003020AE04FEAC3214FEAC520F40241EAA0
:1035E000555140EA56506FF0020202EB2E4201EBB9
:1035F000025585EACE710AD05FEA440C18BF24F068
:10360000004450F1000041F1000120EAD47040F282
:10361000FE7C624500D270BDA84214BF4FF08044CA
:103620004FF04044002E08BF0024BEF1806FA8BFB9
:10363000A1F1C041BDE8704080F282804FF00000EF
:1036400001F1C04101F0004170479EEA0C0F0CEA05
:10365000131518BF95EA0C0F06D04FF0000081EA51
:10366000030E0EF0004170BD00F01CF88900013E11
:1036700000F007B800F009B84FEA430C5FEA5C5C61
:1036800008D081EA030100F05BB84FEA410C5FEA21
:103690005C5CF6D14FF00000014970470000FF0765
:1036A0000000F87F0EF1020E2EF0030E5EF8046BA0
:1036B000364205D4012A43EB030515F5001F12D845
:1036C000012841EB010C1CF5001F0CD80ED14FEA6C
:1036D000D17C15F5001F0CEB4C0C0CF1020C08BF53
:1036E0004CEBD37C04E04FF0080C01E04FEAD37CB4
:1036F0000CEB4C0526FA05F606F00706B6F1040CAD
:1037000006D20EEB860CBDE870404CF0010C604711
:10371000DFE80CF0090B02024FF000414FF000000F
:10372000A1F5002170BD19461046012851EB010496
:1037300018BFD4F5001484BF002001F0004170BD13
:103740000808A0F500114FEA3101704710B591EA61
:10375000030F48BF83F000433FF5E8AD841A71EBD7
:10376000030C07D212198CF0004C43EB0C03001B26
:1037700061EB0C01DFF8A4E14FEA1154A4EB135CF8
:103780001EEA430F18BF9EEA445F00F0B08023EAB0
:103790006E03524221EA0451C3EB6E0338BF5B1E35
:1037A000DCF1200E25D322FA0CFE10EB0E0043FABA
:1037B0000CFE41EB0E01CCF1200E03FA0EFE10EBD5
:1037C0000E0051F10001CCF1200E29D412FA0EF2B4
:1037D00001EB0451BDE8104058BF7047401C1CBFAE
:1037E000B2F1004F704700280CBF491C20F00100C7
:1037F000704712EB020E43EB030218BF4FF0010EAD
:103800004EEA4202ACF1200CDCF11E0E54D943FA10
:103810000CFE10EB0E0051F1FF31CCF11E0ED5D590
:103820000EF1010E12FA0EFE404141EB010101EBD7
:10383000445C5FEA5C5C10D910EBDE7001EB045174
:1038400038BFBEF1004FBDE8104018BF70470028D8
:103850000CBF491C20F00100704730D24FEAD42C35
:1038600011F5001124F400641BD0B1FA81F20B3A77
:10387000A41AA41ED2F12003914030FA03F3194395
:10388000904001EBCC71002C01EB0451BDE81040DD
:10389000A8BF704701F1C0414FF0000001F00041A6
:1038A0007047B0FA80F310FA03F100D110BDE41AAA
:1038B000173C4805C90AE4E701EB045110BD491063
:1038C00001EB0451BDE810404FEA300002E04FF038
:1038D000000170474A0008BF0042F8D0B2F5001F4F
:1038E00028BF704701F000414FF0000070479EEA8A
:1038F000445F07D011EA5E0FBDE8104004BF00210D
:1039000000207047BDE8104070B5FFF7CBFE00BF48
:1039100040DFF63E83F00041104670470000E0FFB4
:1039200043004FEAD30C4FEA3C0C43401FBF400713
:103930000CF1605113F0FE4F70471CF0006F03D183
:1039400000200CF0004170470CF0004343EA507037
:1039500010B540EACC0000F07EF900BF00000092F4
:103960004FEA0001FFF7ECBE4FF000414FF00000BE
:10397000A1F500217047000090EA010F48BF81F0D7
:10398000004100F1C481421A3CBF801A89184FEAF5
:10399000D0524FF07F4C1CEA410FA2EBD15318BF1D
:1039A0009CEA026F00F03B804FF0004C4CEA002094
:1039B0004CEA012121FA03FC10EB0C0C1ED202F19F
:1039C000FF325FEA1C2040EBC25038BF70471CF04A
:1039D0007F0F4FEA400C18BFBCF17F4F38BF7047D4
:1039E000C3F12003994008BF20F00100BCF17F4FD4
:1039F00038BF7047A0F1C04000F073B94FEA3C00F7
:103A0000000A40EBC25028BF1CF0FF0F4FEA400CE9
:103A1000E6D018BFBCF17F4F38BF7047EAE79CEA99
:103A2000026F05D010EA5C0F08BF00F0004070473D
:103A300010B500F010F900BF64FBBE3E401058BF47
:103A4000C0F14040491058BFC1F140418142EFF3FD
:103A500000807047C10DD1F19E0206DB4FEA0023C2
:103A600043F0004323FA02F07047004207D54FEAC3
:103A70004001B1F1FE4F02D24FF00000704710B587
:103A800000F0E9F849922480002070476FEA200096
:103A90007047000010F0004148BF4042B0FA80F388
:103AA00010FA03F2C3F19D030BD051EAC35101EBAD
:103AB0001220530638BF704700F1010008BF20F004
:103AC00001007047B0FA80F310FA03F2C3F19D03CE
:103AD0000AD0D90501EB1220530638BF704700F118
:103AE000010008BF20F001007047000050EA010CFF
:103AF00000F113801CF5000F58BFBCF5000F01D476
:103B00008842704707D710F5000F58BF11F5000F16
:103B100015D488427047894270471CF5000F04D5C0
:103B2000BCF5000FF7D5814270474FF0807C1CEB4D
:103B3000400F38BF1CEB410F01D28142704710B5D6
:103B400000F089F8922449004FF000504FF0805166
:103B5000FFF774BF4FF47F0C1CEAD0121EBF1CEAA3
:103B6000D11392EA0C0F93EA0C0F00F0478090EA11
:103B7000010F48BF42F480724FF0004C4CEA002025
:103B80004CEA012102EB0302A0FB0113A2F50002A3
:103B9000002918BF43F001035B0028BF4FEA33033D
:103BA00042EB22425FEA132C4CEBC2502EBFBCEB1F
:103BB000436FB2F57C0F70474FEA036CBCF1004FC6
:103BC00008BF20F00100B2F57C0F38BF70470BD55D
:103BD00082F0FF0212F5803FC8BF704700F1C0407D
:103BE000D8BF00F00040704700F5000C5FEA4C0CB5
:103BF00048BF7047B0F1C04000F073B890EA010FC1
:103C00000CEAD11348BF42F48072624538BF634565
:103C100004D280EA010000F00040704710B500F0C7
:103C20001AF800BF8900013E00F007B800F009B89B
:103C30005FEA410C5FEA1C6C08D080EA010000F0EA
:103C400050B85FEA400C5FEA1C6CF6D14FF00040C0
:103C5000A0F5800070470EF1020E2EF0030E5EF804
:103C6000044B244204D44FEA4102B2F17F4F11D8F1
:103C70004FEA4003B3F17F4F0CD80ED14FEAD07C0E
:103C8000B2F17F4F0CEB4C0C0CF1020C08BF4CEB6B
:103C9000D17C04E04FF0080C01E04FEAD17C0CEB42
:103CA0004C0324FA03F404F00704B4F1040C06D224
:103CB0000EEB840CBDE810404CF0010C6047DFE8CF
:103CC0000CF0070802024FF00040A0F5800010BD84
:103CD0000846420018BFD2F1807288BF00F0004051
:103CE00010BDFF2141EAD050C005704780F0004070
:103CF00090EA010F7FF547AE81F0004100F007B870
:103D000090EA010F48BF81F000413FF53CAE421AF6
:103D100004D882F00042A0EB020011444FEAD052D6
:103D20004FF07F4C1CEA410FA2EBD15318BF9CEA25
:103D3000026F4AD04FF0004C4CEA00204CEA0121BF
:103D400021FA03FCB0EB0C0C0FD412F0FE0F36D0AE
:103D50005FEA4C001DD5001240EBC25038BF7047DF
:103D60001CF03F0F18BF70470BE0A2F101025FEAA1
:103D70001C2040EBC25038BF70471CF07F0F18BFAB
:103D80007047C3F12003994014BF401E20F001008A
:103D9000704780084FEA122308BF7047B0FA80FCD2
:103DA000A2EB0C02CCF1280C60FA0CF093EA122F73
:103DB00004BF00EBC25070474FEAC3707047130A4C
:103DC0005FEADC1008BF7047F6E79CEA026F04D098
:103DD00010EA5C0F08BF0020704710B5FFF73BFFEB
:103DE00040DFF63E81F000407047FCF754BC000015
:103DF000000000000000BE000000000600060000F9
:103E0000147F147F1400004C7A4F3200006616684D
:103E1000660000384F4D3200000000030000000033
:103E20003E4100000000413E0000001C3E1C00001E
:103E300000083E08000000000060000000080808BC
:103E400008000000400000000040300C0300003E6D
:103E500041413E0000427F4000000062514946005F
:103E60000022494936000038267F2000004F49498A
:103E70003100003E49493200000371090700003655
:103E800049493600002649493E0000002400000050
:103E90000040240000000008142241000014141403
:103EA0001400004122140800000251090600000E0F
:103EB00071497E00007E11117E00007F4949360065
:103EC000003E41412200007F41413E00007F4949C0
:103ED0004100007F09090100003E41493A00007F8E
:103EE00008087F0000417F410000003040403F0053
:103EF000007F08146300007F40404000007F0606FA
:103F00007F00007F06187F00007F41417F00007F17
:103F100009090600003E51617E00007F1929460014
:103F200000264949320000017F010100003F404066
:103F30003F00000F70700F00007F30307F00006383
:103F40001C1C63000304780403000061594D430006
:103F500000007F410000030C304000000000417F62
:103F6000000000020102000000404040400000004C
:103F700003000000002058587800007F48483000B7
:103F8000003048484800003048487F00003058580A
:103F9000100000087C0A08000010A8A87800007F24
:103FA00008780000000074000000008080740000A9
:103FB000007F1028480000407F400000007808780B
:103FC000780000780808700000304848300000F899
:103FD0004848300000304848F800007810080800D1
:103FE00000505868280000087C4800000038404015
:103FF00078000018606018001860386018000048E9
:10400000303048000018A0A07800004868584800E8
:1040100000087741000000007F00000000417708A1
:104020000000000201020100013C42424200C0E0E7
:10403000380C042622020202060418F000000007D1
:104040001C30202060404040602020110F060000FE
:10405000F01804060202022226040C38E0C0060F03
:1040600011202060404040602020301C07001EA628
:10407000008000241C267E27012D502F503122392C
:10408000023A0E3B2A3C093D313E043F0C400541BB
:1040900071427D4408453748024C754E10516652B6
:1040A00056567058155AF29402A602303132333403
:1040B0003536373839414243444546403058003060
:1040C000313233343536373839616263646566407E
:1040D000307800040000080000000000000002002A
:1040E0000100001002400000000000A000000000DD
:1040F00005400000000000C8000000000C40000067
:104100000000409C00000000194000000020BCBEE0
:104110000000000034400000BFC91B8E00000004F6
:10412000B5400000504BCFD06607E2CF0100000041
:104130006C4100003E8251AADFEEA734010000006E
:10414000D9420000DCB5A0E23A301F97FFFFFFFF25
:10415000B4450000FD25A0C8E9A3C14FFFFFFFFF44
:10416000FF3F00000000008000000000FF3F000053
:104170000000008000000000B441000800000020A2
:1041800054000000280100080842000854000020E4
:1041900024070000440100081C0000004300000048
:1041A000F8FFFFFF0C0000000E0000000F000000F1
:1041B0002E0000000000000000000000FFFFFFFFD5
:1041C000000080BF000080BF000080BF000080BFF3
:1041D0000090D00300000000000000000102030472
:1041E00006070809000000000000000000000000B1
:1041F000000000000000010203040102030406079E
:08420000080902040608000091
:04000005080000ED02
:00000001FF
